:107C000001C007C1112484B7882361F0982F9A70AE
:107C1000923041F081FF02C097EF94BF282E80E0A0
:107C2000E3D0EEC185E08093810082E08093C000C4
:107C300088E18093C10086E08093C2008BE9809345
:107C4000C400549A5C9A209A2898209A2898539AAB
:107C50005B9883E28093B00089E08093B1008FE26B
:107C60008093B3008091B30086958093B4008EE03A
:107C7000BBD0259A86E024E23DEF91E03093850069
:107C80002093840096BBB09BFECF1D9AA89540918F
:107C9000C00047FD02C0815089F793E0E92EDD2442
:107CA000D39425E0C22E31E1B32E92D0813459F421
:107CB0008FD0182F9FD083E0113809F488E072D05C
:107CC00080E170D0F2CF823419F484E19BD0F8CFF8
:107CD000853411F485E0FACF853541F479D0C82F89
:107CE00077D0D82FCC0FDD1F85D0EACF863521F491
:107CF00084E088D080E0E3CF843609F034C068D0D7
:107D000067D0F82E65D0A82E00E011E048018FEF73
:107D1000881A980A5DD0F80180838401F810F6CFA4
:107D200069D0F5E4AF1201C0FFCFFE01E7BEE895D0
:107D300007B600FCFDCFFE01A0E0B1E0CD01029648
:107D40002D913C910901D7BEE89511243296DC01B2
:107D5000F812F4CFFE01C7BEE89507B600FCFDCFD0
:107D6000B7BEE895ADCF843771F432D031D0F82E5C
:107D70002FD040D08E01F80185918F0113D0FA9455
:107D8000F110F9CF9DCF853739F434D08EE10AD088
:107D900085E908D08FE093CF813509F0A5CF88E041
:107DA00023D0A2CF289A9091C00095FFFCCF90914C
:107DB000C00090649093C0008093C6008091C00082
:107DC00085FFFCCF8091C00086FFFCCF28980895E6
:107DD0008091C00087FFFCCF8091C00084FD01C06E
:107DE000A8958091C6000895E0E6F0E098E19083C0
:107DF00080830895EDDF803219F088E0F5DFFFCF52
:107E000084E1D0CFCF93C82FE3DFC150E9F7CF9102
:107E1000F1CFFC010A0167BFE895112407B600FC09
:107E2000FDCF667029F0452B19F481E187BFE895F5
:027E30000895B3
:027FFE00030876
:0400000300007C007D
:00000001FF
